{
  "contractName": "NPCI",
  "abi": [
    {
      "constant": true,
      "inputs": [
        {
          "name": "",
          "type": "address"
        }
      ],
      "name": "userDetail",
      "outputs": [
        {
          "name": "name",
          "type": "string"
        },
        {
          "name": "walletBal",
          "type": "uint256"
        },
        {
          "name": "isExist",
          "type": "bool"
        }
      ],
      "payable": false,
      "stateMutability": "view",
      "type": "function"
    },
    {
      "constant": true,
      "inputs": [
        {
          "name": "",
          "type": "address"
        }
      ],
      "name": "bankDetail",
      "outputs": [
        {
          "name": "name",
          "type": "string"
        },
        {
          "name": "isExist",
          "type": "bool"
        }
      ],
      "payable": false,
      "stateMutability": "view",
      "type": "function"
    },
    {
      "constant": false,
      "inputs": [
        {
          "name": "_bankAddress",
          "type": "address"
        },
        {
          "name": "_name",
          "type": "string"
        }
      ],
      "name": "addBank",
      "outputs": [
        {
          "name": "",
          "type": "bool"
        }
      ],
      "payable": false,
      "stateMutability": "nonpayable",
      "type": "function"
    },
    {
      "constant": false,
      "inputs": [
        {
          "name": "_userAddress",
          "type": "address"
        },
        {
          "name": "_bankAddress",
          "type": "address"
        },
        {
          "name": "_bankBal",
          "type": "uint256"
        },
        {
          "name": "_name",
          "type": "string"
        }
      ],
      "name": "addUser",
      "outputs": [
        {
          "name": "",
          "type": "bool"
        }
      ],
      "payable": false,
      "stateMutability": "nonpayable",
      "type": "function"
    },
    {
      "constant": false,
      "inputs": [
        {
          "name": "_userAddress",
          "type": "address"
        },
        {
          "name": "_bankAddress",
          "type": "address"
        },
        {
          "name": "_amount",
          "type": "uint256"
        }
      ],
      "name": "addMoneyToWallet",
      "outputs": [
        {
          "name": "",
          "type": "bool"
        }
      ],
      "payable": false,
      "stateMutability": "nonpayable",
      "type": "function"
    },
    {
      "constant": false,
      "inputs": [
        {
          "name": "_userAddress",
          "type": "address"
        },
        {
          "name": "_bankAddress",
          "type": "address"
        },
        {
          "name": "_amount",
          "type": "uint256"
        }
      ],
      "name": "addMoneyToBank",
      "outputs": [
        {
          "name": "",
          "type": "bool"
        }
      ],
      "payable": false,
      "stateMutability": "nonpayable",
      "type": "function"
    },
    {
      "constant": true,
      "inputs": [
        {
          "name": "_bankAddress",
          "type": "address"
        }
      ],
      "name": "getBankDetail",
      "outputs": [
        {
          "name": "",
          "type": "string"
        },
        {
          "name": "",
          "type": "address[]"
        },
        {
          "name": "",
          "type": "bool"
        }
      ],
      "payable": false,
      "stateMutability": "view",
      "type": "function"
    },
    {
      "constant": true,
      "inputs": [
        {
          "name": "_userAddress",
          "type": "address"
        }
      ],
      "name": "getUserDetail",
      "outputs": [
        {
          "name": "",
          "type": "string"
        },
        {
          "name": "",
          "type": "uint256"
        },
        {
          "name": "",
          "type": "address[]"
        },
        {
          "name": "",
          "type": "bool"
        }
      ],
      "payable": false,
      "stateMutability": "view",
      "type": "function"
    },
    {
      "constant": true,
      "inputs": [
        {
          "name": "_userAddress",
          "type": "address"
        },
        {
          "name": "_bankAddress",
          "type": "address"
        }
      ],
      "name": "getBankDetailOfUser",
      "outputs": [
        {
          "name": "",
          "type": "uint256"
        }
      ],
      "payable": false,
      "stateMutability": "view",
      "type": "function"
    },
    {
      "constant": false,
      "inputs": [
        {
          "name": "_from",
          "type": "address"
        },
        {
          "name": "_to",
          "type": "address"
        },
        {
          "name": "_amount",
          "type": "uint256"
        }
      ],
      "name": "transferMoney",
      "outputs": [
        {
          "name": "",
          "type": "bool"
        }
      ],
      "payable": false,
      "stateMutability": "nonpayable",
      "type": "function"
    }
  ],
  "bytecode": "0x608060405234801561001057600080fd5b50611a27806100206000396000f3006080604052600436106100a4576000357c0100000000000000000000000000000000000000000000000000000000900463ffffffff16806323d236c6146100a95780634a48c84b146101b85780635b10493f146102ce5780636410381c1461039c57806366a71814146104215780637fde537d146104985780638c4389081461051d5780638c58eefd146105be578063adcb876814610685578063e6f36e601461070a575b600080fd5b3480156100b557600080fd5b506100ea600480360381019080803573ffffffffffffffffffffffffffffffffffffffff1690602001909291905050506107d5565b60405180806020018060200184151515158152602001838103835286818151815260200191508051906020019080838360005b8381101561013857808201518184015260208101905061011d565b50505050905090810190601f1680156101655780820380516001836020036101000a031916815260200191505b50838103825285818151815260200191508051906020019060200280838360005b838110156101a1578082015181840152602081019050610186565b505050509050019550505050505060405180910390f35b3480156101c457600080fd5b506101f9600480360381019080803573ffffffffffffffffffffffffffffffffffffffff16906020019092919050505061099c565b60405180806020018581526020018060200184151515158152602001838103835287818151815260200191508051906020019080838360005b8381101561024d578082015181840152602081019050610232565b50505050905090810190601f16801561027a5780820380516001836020036101000a031916815260200191505b50838103825285818151815260200191508051906020019060200280838360005b838110156102b657808201518184015260208101905061029b565b50505050905001965050505050505060405180910390f35b3480156102da57600080fd5b5061030f600480360381019080803573ffffffffffffffffffffffffffffffffffffffff169060200190929190505050610b78565b604051808060200184815260200183151515158152602001828103825285818151815260200191508051906020019080838360005b8381101561035f578082015181840152602081019050610344565b50505050905090810190601f16801561038c5780820380516001836020036101000a031916815260200191505b5094505050505060405180910390f35b3480156103a857600080fd5b50610407600480360381019080803573ffffffffffffffffffffffffffffffffffffffff169060200190929190803573ffffffffffffffffffffffffffffffffffffffff16906020019092919080359060200190929190505050610c47565b604051808215151515815260200191505060405180910390f35b34801561042d57600080fd5b50610482600480360381019080803573ffffffffffffffffffffffffffffffffffffffff169060200190929190803573ffffffffffffffffffffffffffffffffffffffff169060200190929190505050610e0c565b6040518082815260200191505060405180910390f35b3480156104a457600080fd5b50610503600480360381019080803573ffffffffffffffffffffffffffffffffffffffff169060200190929190803573ffffffffffffffffffffffffffffffffffffffff16906020019092919080359060200190929190505050610e96565b604051808215151515815260200191505060405180910390f35b34801561052957600080fd5b506105a4600480360381019080803573ffffffffffffffffffffffffffffffffffffffff169060200190929190803590602001908201803590602001908080601f01602080910402602001604051908101604052809392919081815260200183838082843782019150505050505091929192905050506110d4565b604051808215151515815260200191505060405180910390f35b3480156105ca57600080fd5b506105ff600480360381019080803573ffffffffffffffffffffffffffffffffffffffff16906020019092919050505061127a565b604051808060200183151515158152602001828103825284818151815260200191508051906020019080838360005b8381101561064957808201518184015260208101905061062e565b50505050905090810190601f1680156106765780820380516001836020036101000a031916815260200191505b50935050505060405180910390f35b34801561069157600080fd5b506106f0600480360381019080803573ffffffffffffffffffffffffffffffffffffffff169060200190929190803573ffffffffffffffffffffffffffffffffffffffff16906020019092919080359060200190929190505050611343565b604051808215151515815260200191505060405180910390f35b34801561071657600080fd5b506107bb600480360381019080803573ffffffffffffffffffffffffffffffffffffffff169060200190929190803573ffffffffffffffffffffffffffffffffffffffff16906020019092919080359060200190929190803590602001908201803590602001908080601f01602080910402602001604051908101604052809392919081815260200183838082843782019150505050505091929192905050506115be565b604051808215151515815260200191505060405180910390f35b60608060006107e2611907565b6000808673ffffffffffffffffffffffffffffffffffffffff1673ffffffffffffffffffffffffffffffffffffffff16815260200190815260200160002060606040519081016040529081600082018054600181600116156101000203166002900480601f0160208091040260200160405190810160405280929190818152602001828054600181600116156101000203166002900480156108c55780601f1061089a576101008083540402835291602001916108c5565b820191906000526020600020905b8154815290600101906020018083116108a857829003601f168201915b505050505081526020016001820180548060200260200160405190810160405280929190818152602001828054801561095357602002820191906000526020600020905b8160009054906101000a900473ffffffffffffffffffffffffffffffffffffffff1673ffffffffffffffffffffffffffffffffffffffff1681526020019060010190808311610909575b505050505081526020016003820160009054906101000a900460ff1615151515815250509050806000015181602001518260400151829250819150935093509350509193909250565b60606000606060006109ac61192b565b600160008773ffffffffffffffffffffffffffffffffffffffff1673ffffffffffffffffffffffffffffffffffffffff16815260200190815260200160002060806040519081016040529081600082018054600181600116156101000203166002900480601f016020809104026020016040519081016040528092919081815260200182805460018160011615610100020316600290048015610a905780601f10610a6557610100808354040283529160200191610a90565b820191906000526020600020905b815481529060010190602001808311610a7357829003601f168201915b50505050508152602001600182015481526020016002820160009054906101000a900460ff1615151515815260200160038201805480602002602001604051908101604052809291908181526020018280548015610b4357602002820191906000526020600020905b8160009054906101000a900473ffffffffffffffffffffffffffffffffffffffff1673ffffffffffffffffffffffffffffffffffffffff1681526020019060010190808311610af9575b505050505081525050905080600001518160200151826060015183604001518393508191509450945094509450509193509193565b6001602052806000526040600020600091509050806000018054600181600116156101000203166002900480601f016020809104026020016040519081016040528092919081815260200182805460018160011615610100020316600290048015610c245780601f10610bf957610100808354040283529160200191610c24565b820191906000526020600020905b815481529060010190602001808311610c0757829003601f168201915b5050505050908060010154908060020160009054906101000a900460ff16905083565b6000806000600160008773ffffffffffffffffffffffffffffffffffffffff1673ffffffffffffffffffffffffffffffffffffffff1681526020019081526020016000209150600160008673ffffffffffffffffffffffffffffffffffffffff1673ffffffffffffffffffffffffffffffffffffffff1681526020019081526020016000209050838260010154118015610ce15750600084115b1515610d55576040517f08c379a000000000000000000000000000000000000000000000000000000000815260040180806020018281038252601a8152602001807f4e6f7420456e6f7567682046756e64207769746820757365722100000000000081525060200191505060405180910390fd5b8060020160009054906101000a900460ff161515610ddb576040517f08c379a00000000000000000000000000000000000000000000000000000000081526004018080602001828103825260168152602001807f4e6f2073756368207573657220696e2073797374656d0000000000000000000081525060200191505060405180910390fd5b8382600101600082825403925050819055508381600101600082825401925050819055506001925050509392505050565b6000600160008473ffffffffffffffffffffffffffffffffffffffff1673ffffffffffffffffffffffffffffffffffffffff16815260200190815260200160002060040160008373ffffffffffffffffffffffffffffffffffffffff1673ffffffffffffffffffffffffffffffffffffffff16815260200190815260200160002054905092915050565b60008060008060008673ffffffffffffffffffffffffffffffffffffffff1673ffffffffffffffffffffffffffffffffffffffff1681526020019081526020016000209150600160008773ffffffffffffffffffffffffffffffffffffffff1673ffffffffffffffffffffffffffffffffffffffff16815260200190815260200160002090508160020160008773ffffffffffffffffffffffffffffffffffffffff1673ffffffffffffffffffffffffffffffffffffffff16815260200190815260200160002060009054906101000a900460ff161515610fdf576040517f08c379a00000000000000000000000000000000000000000000000000000000081526004018080602001828103825260208152602001807f55736572206e6f74207265676973746564207769746820746869732062616e6b81525060200191505060405180910390fd5b600084118015610ff25750838160010154115b1515611066576040517f08c379a000000000000000000000000000000000000000000000000000000000815260040180806020018281038252600f8152602001807f4e6f7420656e6f7567682066756e64000000000000000000000000000000000081525060200191505060405180910390fd5b838160010160008282540392505081905550838160040160008773ffffffffffffffffffffffffffffffffffffffff1673ffffffffffffffffffffffffffffffffffffffff168152602001908152602001600020600082825401925050819055506001925050509392505050565b60008060008473ffffffffffffffffffffffffffffffffffffffff1673ffffffffffffffffffffffffffffffffffffffff16815260200190815260200160002060030160009054906101000a900460ff161515156111c0576040517f08c379a00000000000000000000000000000000000000000000000000000000081526004018080602001828103825260248152602001807f42616e6b20697320416c7265616479207265676973746572656420696e20737981526020017f7374656d0000000000000000000000000000000000000000000000000000000081525060400191505060405180910390fd5b816000808573ffffffffffffffffffffffffffffffffffffffff1673ffffffffffffffffffffffffffffffffffffffff1681526020019081526020016000206000019080519060200190611215929190611956565b5060016000808573ffffffffffffffffffffffffffffffffffffffff1673ffffffffffffffffffffffffffffffffffffffff16815260200190815260200160002060030160006101000a81548160ff0219169083151502179055506001905092915050565b6000602052806000526040600020600091509050806000018054600181600116156101000203166002900480601f0160208091040260200160405190810160405280929190818152602001828054600181600116156101000203166002900480156113265780601f106112fb57610100808354040283529160200191611326565b820191906000526020600020905b81548152906001019060200180831161130957829003601f168201915b5050505050908060030160009054906101000a900460ff16905082565b60008060008060008673ffffffffffffffffffffffffffffffffffffffff1673ffffffffffffffffffffffffffffffffffffffff1681526020019081526020016000209150600160008773ffffffffffffffffffffffffffffffffffffffff1673ffffffffffffffffffffffffffffffffffffffff16815260200190815260200160002090508160020160008773ffffffffffffffffffffffffffffffffffffffff1673ffffffffffffffffffffffffffffffffffffffff16815260200190815260200160002060009054906101000a900460ff16151561148c576040517f08c379a00000000000000000000000000000000000000000000000000000000081526004018080602001828103825260208152602001807f55736572206e6f74207265676973746564207769746820746869732062616e6b81525060200191505060405180910390fd5b6000841180156114dc5750838160040160008773ffffffffffffffffffffffffffffffffffffffff1673ffffffffffffffffffffffffffffffffffffffff16815260200190815260200160002054115b1515611550576040517f08c379a000000000000000000000000000000000000000000000000000000000815260040180806020018281038252600f8152602001807f4e6f7420656e6f7567682066756e64000000000000000000000000000000000081525060200191505060405180910390fd5b838160010160008282540192505081905550838160040160008773ffffffffffffffffffffffffffffffffffffffff1673ffffffffffffffffffffffffffffffffffffffff168152602001908152602001600020600082825403925050819055506001925050509392505050565b60008060008060008773ffffffffffffffffffffffffffffffffffffffff1673ffffffffffffffffffffffffffffffffffffffff1681526020019081526020016000209150600160008873ffffffffffffffffffffffffffffffffffffffff1673ffffffffffffffffffffffffffffffffffffffff16815260200190815260200160002090508160020160008873ffffffffffffffffffffffffffffffffffffffff1673ffffffffffffffffffffffffffffffffffffffff16815260200190815260200160002060009054906101000a900460ff161580156116af57508060020160009054906101000a900460ff16155b1515611749576040517f08c379a00000000000000000000000000000000000000000000000000000000081526004018080602001828103825260248152602001807f5573657220616c7265616479207265676973746564207769746820746869732081526020017f62616e6b0000000000000000000000000000000000000000000000000000000081525060400191505060405180910390fd5b83816000019080519060200190611761929190611956565b50848160040160008873ffffffffffffffffffffffffffffffffffffffff1673ffffffffffffffffffffffffffffffffffffffff1681526020019081526020016000208190555060008160010181905550806003018690806001815401808255809150509060018203906000526020600020016000909192909190916101000a81548173ffffffffffffffffffffffffffffffffffffffff021916908373ffffffffffffffffffffffffffffffffffffffff16021790555050816001018790806001815401808255809150509060018203906000526020600020016000909192909190916101000a81548173ffffffffffffffffffffffffffffffffffffffff021916908373ffffffffffffffffffffffffffffffffffffffff1602179055505060018260020160008973ffffffffffffffffffffffffffffffffffffffff1673ffffffffffffffffffffffffffffffffffffffff16815260200190815260200160002060006101000a81548160ff02191690831515021790555060018160020160006101000a81548160ff021916908315150217905550600192505050949350505050565b60606040519081016040528060608152602001606081526020016000151581525090565b6080604051908101604052806060815260200160008152602001600015158152602001606081525090565b828054600181600116156101000203166002900490600052602060002090601f016020900481019282601f1061199757805160ff19168380011785556119c5565b828001600101855582156119c5579182015b828111156119c45782518255916020019190600101906119a9565b5b5090506119d291906119d6565b5090565b6119f891905b808211156119f45760008160009055506001016119dc565b5090565b905600a165627a7a72305820c65432129f6674713a07b2885d347088b7f4f7d588260594b44538497364808c0029",
  "source": "pragma solidity ^0.4.24;\r\n\r\ncontract NPCI {\r\n    \r\n    struct Bank {\r\n        string name;\r\n        address[] listOfUsers;\r\n        mapping(address => bool) userExist;\r\n        bool isExist;\r\n    }\r\n    \r\n    struct User {\r\n        string name;\r\n        uint256 walletBal;\r\n        bool isExist;\r\n        address[] listOfBank;\r\n        mapping(address => uint256) bankBal;\r\n    }\r\n    \r\n    //Bank details from wallet address\r\n    mapping(address => Bank) public bankDetail;\r\n    mapping(address => User) public userDetail;\r\n    \r\n    function addBank(address _bankAddress, string _name) public returns(bool) {\r\n        require(!bankDetail[_bankAddress].isExist,\r\n                \"Bank is Already registered in system\");\r\n        bankDetail[_bankAddress].name = _name;\r\n        //bankDetailByName[sha256(_name)] = _walletAddress;\r\n        bankDetail[_bankAddress].isExist = true;\r\n        return true;\r\n    }\r\n    \r\n    \r\n    function addUser(address _userAddress,\r\n                        address _bankAddress,\r\n                        uint256 _bankBal, \r\n                        string _name) \r\n            public returns(bool) {\r\n        Bank storage bank = bankDetail[_bankAddress];\r\n        User storage users = userDetail[_userAddress];\r\n        require(!bank.userExist[_userAddress] && !users.isExist,\"User already registed with this bank\");\r\n        users.name = _name;\r\n        users.bankBal[_bankAddress] = _bankBal;\r\n        users.walletBal = 0;\r\n        users.listOfBank.push(_bankAddress);\r\n        bank.listOfUsers.push(_userAddress);\r\n        bank.userExist[_userAddress] = true;\r\n        users.isExist = true;\r\n        return true;   \r\n    }\r\n\r\n    function addMoneyToWallet(address _userAddress,\r\n                                address _bankAddress,\r\n                                uint256 _amount)\r\n            public returns(bool) {\r\n        Bank storage bank = bankDetail[_bankAddress];\r\n        User storage user = userDetail[_userAddress];\r\n        require(bank.userExist[_userAddress],\"User not registed with this bank\");\r\n        require(_amount > 0 && user.bankBal[_bankAddress] > _amount,\"Not enough fund\");\r\n        user.walletBal += _amount;\r\n        user.bankBal[_bankAddress] -= _amount; \r\n        return true;\r\n    }\r\n\r\n    function addMoneyToBank(address _userAddress,\r\n                            address _bankAddress,\r\n                            uint256 _amount)\r\n            public returns(bool) {\r\n        Bank storage bank = bankDetail[_bankAddress];\r\n        User storage user = userDetail[_userAddress];\r\n        require(bank.userExist[_userAddress],\"User not registed with this bank\");\r\n        require(_amount > 0 && user.walletBal > _amount,\"Not enough fund\");\r\n        user.walletBal -= _amount;\r\n        user.bankBal[_bankAddress] += _amount;\r\n        return true;\r\n    }\r\n\r\n\r\n    function getBankDetail(address _bankAddress) public view returns(string,address[],bool) {\r\n        Bank memory bank = bankDetail[_bankAddress];\r\n        return(\r\n            bank.name,\r\n            bank.listOfUsers,\r\n            bank.isExist\r\n        );\r\n    }\r\n\r\n    function getUserDetail(address _userAddress) public view returns(string,uint256,address[],bool) {\r\n        User memory user = userDetail[_userAddress];\r\n        return(\r\n            user.name,\r\n            user.walletBal,\r\n            user.listOfBank,\r\n            user.isExist\r\n        );\r\n    }\r\n    \r\n    function getBankDetailOfUser(address _userAddress, address _bankAddress) public view returns(uint256) {\r\n        return(\r\n                userDetail[_userAddress].bankBal[_bankAddress]\r\n            );\r\n    }\r\n \r\n    function transferMoney(address _from, address _to, uint256 _amount) public returns(bool) {\r\n        User storage sender = userDetail[_from];\r\n        User storage receiver = userDetail[_to];\r\n        require(sender.walletBal > _amount && _amount > 0, \"Not Enough Fund with user!\");\r\n        require(receiver.isExist,\"No such user in system\");\r\n        sender.walletBal -= _amount;\r\n        receiver.walletBal += _amount;\r\n        return true;\r\n    }\r\n}",
  "sourcePath": "D:/Work/NPCI Challenge/NPCI/contracts/NPCI.sol",
  "compiler": {
    "name": "solc",
    "version": "0.4.24+commit.e67f0147.Emscripten.clang"
  },
  "schemaVersion": "3.0.15",
  "updatedAt": "2019-10-03T17:41:04.114Z",
  "devdoc": {
    "methods": {}
  },
  "userdoc": {
    "methods": {}
  }
}